:020000040800F2
:10000000C804002005010008F71300081B130008AE
:10001000F5130008A30500083715000800000000CC
:10002000000000000000000000000000FB130008BA
:10003000E906000800000000F9130008FD1300089D
:100040001F0100081F0100081F0100081F01000810
:100050001F0100081F0100081F0100081F01000800
:100060001F0100081F0100081F0100081F010008F0
:100070001F0100081F0100081F0100081F010008E0
:100080001F0100081F0100081F0100081F010008D0
:100090001F0100081F0100081F0100081F010008C0
:1000A0001F0100081F0100081F0100081F010008B0
:1000B0001F0100081F0100081F0100081F010008A0
:1000C0001F0100081F0100081F0100081F01000890
:1000D0001F0100081F0100081F0100081F01000880
:1000E0001F0100081F0100081F010008DFF810D0E1
:1000F00000F036FA0048004779150008AFF3008099
:10010000C80400200648804706480047FEE7FEE78F
:10011000FEE7FEE7FEE7FEE7FEE7FEE7FEE7FEE7B7
:100120005F140008ED000008202A04DB203A21FAC1
:1001300002F00021704721FA02F3D040C2F1200200
:100140009140084319467047D2B201E000F8012BF4
:10015000491EFBD270470022F6E710B513460A4647
:1001600004461946FFF7F0FF204610BDF0B480EAC0
:100170000102D40F4200B2EB410F02D20246084600
:1001800011464A0042D0C30DDDB2C1F3C752AD1AC9
:10019000202D35DAC1F3160141F4000204B15242B8
:1001A000C5F1200602FA06F12A411044B3EBD05FF4
:1001B00023D0C4B1012DA0EBC35009DCF0BC4FF03B
:1001C000004202EAC352DBB200F5000000F03CB985
:1001D000400000F1807000EBC350A0F1807040EA55
:1001E000D170490009E0490841EAC071A0EBC35051
:1001F00000F50000400800EBC350F0BC00F01BB954
:100200006142012202EB4101001BF6E7F0BC70479E
:1002100081F00041AAE780F00040A7E780EA0102F0
:1002200010B502F00043400022D04A001FD0010E5A
:1002300001EB1261C0F35600C2F3560240F4000015
:1002400042F40002A0FB022000047F39140400D015
:10025000401C50EA124001D44000491EC2B20C06B4
:1002600004EBD010401C4008802A02D003E000209C
:1002700010BD20F00100002900DA0020184310BD55
:1002800030B480EA010202F0004530F0004221F073
:10029000004013D090B1C30DD40DC2F31601C0F3CA
:1002A0001600E41A41F4000140F400027D3491424A
:1002B00001D3641C00E04900002C02DA30BC0020AD
:1002C00070474FF400000023914201D3891A034381
:1002D00040084FEA4101F7D151B1914202D14FF0AC
:1002E000004105E002D24FF0010101E06FF0010191
:1002F00003EBC450284430BC00F09DB82DE9F04D0C
:1003000081EA030404F0004B21F0004514464FF04D
:10031000000A23F0004150EA050220D054EA01020D
:100320001DD0C5F30A570246C5F31303C1F31300EA
:10033000C1F30A5640F4801543F48013A7EB060876
:10034000101BD64608F2FD3873EB050002D308F106
:10035000010801E092185B41B8F1000F03DA0020B8
:100360000146BDE8F08D00204FF48011064684461A
:100370000EE0171B73EB050705D3121B63EB050398
:1003800006434CEA010C49084FEA300092185B41E1
:1003900050EA0107EDD152EA030012D082EA0400CC
:1003A00083EA0501084305D0101BAB4106D20122A8
:1003B000002306E000224FF0004302E06FF001024C
:1003C00053101AEB06004CEB085110EB0A0041EBFE
:1003D0000B01BDE8F04D00F065B8962300221146F0
:1003E00000F032B80EB540F2334102910021CDE960
:1003F00000110A460B4600F064F803B000BD01F09E
:10040000004330B421F0004150EA010206D00A0D49
:10041000A2F56072C1F31301002A02DC30BC002097
:100420007047440F44EAC104C100E01830BC00EB3F
:10043000C250AFF300800029A8BF7047401C49009C
:1004400008BF20F00100704710B4B0FA80FC00FA39
:100450000CF050EA010404BF10BC704749B1CCF164
:10046000200421FA04F411FA0CF118BF01212143F0
:100470000843A3EB0C01CB1D4FEA00614FEA1020AB
:1004800042BF002010BC704700EBC350104400294D
:10049000A4BF10BC7047401C490008BF20F00100F9
:1004A00010BC704710B5141E73F1000408DA401C2C
:1004B00041F1000192185B411A4301D120F0010083
:1004C00010BD2DE9F04D92469B4611B1B1FA81F273
:1004D00002E0B0FA80F22032904600F053F8044671
:1004E0000F4640EA0A0041EA0B0153465A460843C8
:1004F00013D0114653EA010019D0C8F1400250460A
:10050000FFF712FE05460E4650465946424600F099
:1005100039F8084305D0012004E020463946BDE8FB
:10052000F08D0020054346EAE0762C4337430A98D5
:100530006305E40AA0EB08000022FD0A44EA4754E0
:100540000A3002D500200146E9E70105101969418A
:10055000DDE9084500196941BDE8F04DA2E700005A
:10056000064C074D06E0E06840F0010394E8070000
:1005700098471034AC42F6D3FFF7BCFDD016000804
:10058000F0160008202A04DB203A00FA02F10020CD
:1005900070479140C2F1200320FA03F319439040C1
:1005A0007047FEE72DE9F04700254FF0010A4FF4B0
:1005B0000079DFF88480214C00F0A4F9606100F03C
:1005C000A1F94F46A06102E000F09CF9A061394614
:1005D000404600F08DF920B9D4E90501801C88421D
:1005E000F2D8282001F05CF8B94639464746404623
:1005F00000F07EF90028C5F107010AFA01F019D0D0
:100600003043C6B200F07EF9C4F8140000F07AF965
:10061000A0614946384600F06BF920B1D4E90501E4
:10062000801C8842F2D86D1CEDB2082DC4D3304630
:10063000BDE8F0878643E5E7000C0140000000209C
:100640002DE9FF41002502204FF400744FF001080E
:10065000CDE90250224ECDE900482F46694630468A
:1006600000F056F800222146304600F046F91420EA
:1006700000F03CF801222146304600F03EF91E20F1
:1006800001F00EF8CDE901786946304600F040F8F7
:10069000282001F005F82146304600F029F940B93C
:1006A000502000F0FDFF2146304600F021F900B156
:1006B000012500F027F90B4FC7F8140000F022F9CC
:1006C000B8612146304600F013F920B1D7E90501A1
:1006D000801C8842F2D804B02846BDE8F0810000B2
:1006E000000C0140000000207047000070B5044677
:1006F00000F008F90546601C02D004480078044464
:1007000000F000F9401BA042FAD370BD1C0000208D
:100710002DE9F84FDFF8B891002409F1040A0AF135
:10072000040B23460F270BF1040EC9E00125A54059
:100730002A40AA427DD1674ED1F804C0ACEB06082E
:10074000B44532D014DCBCF1030F3AD009DCBCF163
:10075000000F2AD0BCF1010F1CD0BCF1020F31D127
:100760001DE0BCF1110F17D0BCF1120F2AD119E016
:10077000B8F5881F19D006DCB8F5803F15D0B8F55C
:10078000801F1FD111E0B8F5001F0ED0B8F5041F6F
:1007900018D10AE0CB6815E0CB681B1D12E0CB68CE
:1007A00008330FE0CB680C330CE08B682BB1012BC6
:1007B0004FF0080303D0456104E0042302E0056123
:1007C00000E00023FF2A01D8064601E000F10406FC
:1007D0004FEA840501D9A5F12005D6F8008007FA73
:1007E00005FC28EA0C0803FA05F548EA0508C6F8EE
:1007F00000804D68ED0062D5374DAE6946F00106C8
:10080000AE61AD6924F0030605F001050095334D96
:1008100006EB050CDCF80850A607360F07FA06F8B9
:1008200025EA0805DFF8B880404503D14FF00008FD
:1008300017E044E0DFF8AC80404502D14FF00108FA
:100840000FE0DFF8A480404502D14FF0020808E035
:10085000DFF89880404502D14FF0030801E04FF0E7
:10086000040808FA06F848EA0508CCF808804D683C
:10087000D9F80060ED034D4601D5164300E09643DC
:100880002E604D68DAF80060AD03554601D5164379
:1008900000E096432E604D68DBF80060ED025D4697
:1008A00001D5164300E096432E604D68DEF80060E7
:1008B000AD02754601D5164300E096432E60641CD8
:1008C0000D682A46E5407FF431AFBDE8F88F00009F
:1008D000000401400000111000100240000001401F
:1008E00000080140000C01400010014000140140CC
:1008F0008068084000D0012070470AB1016170474C
:100900000904FBE701488068704700001C000020D4
:1009100070B5040025D094F83D00002520B984F876
:100920003C50204600F0B8F8242084F83D002068B0
:10093000016821F0010101602068016841F4004173
:1009400001602068016821F40041016000F0F2F9C3
:100950004D4A6168914201D84C4900E04C498842B7
:1009600001D2012070BD4B492368B0FBF1F15E68F4
:1009700026F03F060E435E606368934206D94FF44B
:10098000967359434FF47A73B1FBF3F12368491C12
:100990001E6A26F03F06314319626168914210D801
:1009A0004900401EB0FBF1F2521CC2F30B02042AB4
:1009B00001D2042022E0B0FBF1F0401CC0F30B0098
:1009C0001CE0A268F2B301EBC10303EB0116431E66
:1009D000B3FBF6F35B1C43F480431B0549D092B391
:1009E00001EBC10202EB0111401EB0FBF1F0401C13
:1009F000C0F30B0040F4804040F400402168CA6915
:100A00004CF6FF739A431043C861D4E907100143C1
:100A10002068026822F0C00211430160D4E903019A
:100A200001432068826848F2FF339A431143816092
:100A3000D4E9050108432168CA6822F0FF02104387
:100A4000C86001E00EE016E02068016841F0010195
:100A500001602564202084F83D00256384F83E5021
:100A6000002070BD01EB4106431EB3FBF6F35B1C97
:100A7000B3E70120C2E701EB4101401EB0FBF1F0FA
:100A8000401CC0F30B00B7E7A086010080841E0065
:100A900000093D0040420F0010B586B000210091D2
:100AA00001910291039100680F4988421AD10F4CBD
:100AB000A06940F00800A061A069694600F0080044
:100AC0000490C02000901220019003200390084859
:100AD000FFF71EFEE06940F40010E061E06900F4F9
:100AE0000010049006B010BD0054004000100240F9
:100AF000000C01400248816802781144816070470F
:100B00001C000020074810B5016841F01001016089
:100B1000032000F067F8002000F006F800F024F849
:100B2000002010BD0020024070B50D4D04464FF46A
:100B30007A712878B1FBF0F00A490968B1FBF0F04E
:100B400000F0CEFA48B9102C07D200222146501EE0
:100B500000F028F800206C6070BD012070BD00001E
:100B60001C000020280000200C4808B5816941F0D5
:100B700001018161816901F001010091C16941F0C8
:100B80008051C161C06900F0805000900448416804
:100B900021F0E06141F00071416008BD00100240A9
:100BA00000000140F0B40E4B1B680C46C3F3022357
:100BB000C3F10705042D00D90425191D072901D209
:100BC000002300E0DB1E012606FA05F1491E214044
:100BD00099409E40761E16403143F0BC00F0ACBCFC
:100BE0000CED00E0064900F0070208684FF6FF032D
:100BF000184040EA0220034A104308607047000092
:100C00000CED00E00000FA052DE9F0470F46050065
:100C100061D0434E306800F00700B84209D2306816
:100C200020F0070038433060306800F00700B84219
:100C300051D128683B4C810712D5400703D5606825
:100C400040F4E06060602878000703D5606840F4F5
:100C5000605060606068A96820F0F0000843606040
:100C60002878C00728D06868012810D02168022899
:100C700010D0890700292EDA616821F003010143B1
:100C80006160FFF73FFE804641F288390DE0216840
:100C90008903EFE78901EDE7FFF734FEA0EB0801D8
:100CA000494502D90320BDE8F0876068696800F013
:100CB0000C00B0EB810FEFD1306800F00700B842B4
:100CC0000BD9306820F0070038433060306800F0FE
:100CD0000700B84201D00120E5E72878400705D594
:100CE0006068E96820F4E0600843606028780007E5
:100CF00006D56068296920F4605040EAC100606050
:100D000000F028F86168084AC1F30311515CC8403B
:100D10000649086006480068FFF706FF0020C2E7A2
:100D20000020024000100240B816000828000020F1
:100D3000200000200448054900684968044AC1F3BE
:100D40000221515CC840704728000020001002407A
:100D5000C816000812A185B00FC98DE80F0014A0B5
:100D6000144A006804905168134801F00C03042BE6
:100D700010D0082B0ED1C1F38343C9031DF8030023
:100D80000AD5516804AAC1F34041515C0A4A504354
:100D9000B0FBF1F005B0704708494843FAE700009E
:100DA00002030405060708090A0B0C0D0E0F1010AC
:100DB000010200000010024000127A0000093D000C
:100DC0002DE9F84F040070D02078C04DC00749D0FD
:100DD0006868C0F38100012807D06868C0F381000B
:100DE000022809D16868C00306D52868800339D570
:100DF00060680028E7D035E06068B0F5803F0BD030
:100E000010B1B0F5A02F11D0286820F480302860F0
:100E1000286820F4802002E0286840F480302860B0
:100E2000606890B1FFF76EFD06460AE0286840F45E
:100E300080202860F0E700BFFFF764FD801B642876
:100E400073D828688003F7D50CE0FFF75BFD0646F2
:100E500005E000BFFFF756FD801B6428F0D8286826
:100E60008003F7D420789A4E80074FF001094FF0A5
:100E7000000839D5686810F00C0F07D06868C0F317
:100E80008100022809D16868C00306D42868800759
:100E900014D52069012808D110E02069B0B1C6F846
:100EA0000090FFF72FFD074605E00AE1FFF72AFD56
:100EB000C01B0228C4D828688007F7D52868616954
:100EC00020F0F80040EAC10028600DE0C6F800807C
:100ED000FFF718FD074604E0FFF714FDC01B0228CA
:100EE00023D828688007F7D4207800072CD57948C4
:100EF000A169D9B1C0F80090FFF704FD074604E0EE
:100F0000FFF700FDC01B02280FD8686A8007F7D5DD
:100F100071484FF4FA510068B0FBF1F0009000BF47
:100F20000098411E0091FAD20EE080E0C0F80080E7
:100F3000FFF7E8FC074604E0FFF7E4FCC01B0228CB
:100F400075D8686A8007F7D42078400760D5E869CB
:100F50000027C00008D4E86940F08050E861E869E3
:100F6000012700F0805000905C480168C90513D447
:100F70000168834641F480710160FFF7C3FC82463B
:100F800006E000BFFFF7BEFCA0EB0A0064284ED8C5
:100F9000DBF80000C005F5D5E06801280AD008B1EB
:100FA000052813D0286A20F001002862286A20F062
:100FB000040002E0286A40F001002862E06841F283
:100FC000883B98B1FFF79EFC82460BE0286A40F010
:100FD00004002862EEE700BFFFF794FCA0EB0A01D3
:100FE00059455AD8286A8007F6D50CE0FFF78AFCE5
:100FF000824605E0FFF786FCA0EB0A0159454CD874
:10100000286A8007F6D41FB1E86920F08050E861B3
:10101000E06988B36968C1F38101022944D00228DC
:10102000C6F8608004D0FFF76DFC044638E034E079
:10103000FFF768FC074604E0FFF764FCC01B0228CA
:101040002BD828688001F7D4206AB0F5803F05D1FD
:101050006868A16820F4003008436860D4E908019A
:101060000843696821F4741108436860C6F8609009
:10107000FFF748FC044606E025E000BFFFF742FC0E
:10108000001B022809D828688001F7D51BE000BFA3
:10109000FFF738FC001B022802D90320BDE8F88FB7
:1010A00028688001F4D40EE00128F7D06868226A2D
:1010B00000F48031914204D1616A00F470108842DA
:1010C00001D00120EAE70020E8E70000001002401C
:1010D000000042428004424228000020007000408C
:1010E00010B5401EB0F1807F01D3012010BD4FF03C
:1010F000E02460610F21601700F01EFA0020A0615B
:1011000007202061002010BD70B590F83C20012A16
:1011100026D0012480F83C40022280F83D2003685C
:101120005A689D6822F070060A6832435A600D4B77
:1011300002689A4208D0B2F1804F05D00A4B9A4219
:1011400002D00A4B9A4204D1496825F08003194322
:10115000916080F83D40002180F83C10084670BD49
:10116000022070BD002C0140000400400008004037
:1011700010B5040003D094F83D0010B107E0012041
:1011800010BD002084F83C00204600F01FF802202B
:1011900084F83D00211D206800F062F9012084F8E8
:1011A000460084F83E0084F83F0084F8400084F84C
:1011B000410084F8420084F8430084F8440084F835
:1011C000450084F83D00002010BD000008B500680F
:1011D0000649884208D10648816941F4006181616D
:1011E000806900F40060009008BD0000002C014000
:1011F0000010024090F83D10012901D001207047F5
:10120000022180F83D1000680B49884208D0B0F1F7
:10121000804F05D00949884202D00949884204D14B
:10122000816801F00701062903D0016841F001013E
:101230000160002070470000002C014000040040C5
:101240000008004070B5044690F83C00012817D013
:10125000012584F83C50022084F83D002068826813
:1012600022F0770222F47F4282600868502830D052
:101270000DDC20284DD005DC98B310283BD148E088
:10128000022070BD302844D0402834D139E0602895
:1012900028D0702806D0B0F5805F2CD0B0F5005F64
:1012A00029D10AE0CB68D1E90121206800F00EF9CC
:1012B0002068816841F0770109E0CB68D1E901211C
:1012C000206800F003F92068816841F48041816062
:1012D00011E0CA684968206800F00AF950212068C6
:1012E00007E016E0CA684968206800F012F960213A
:1012F000206800F0F5F884F83D50002084F83C00A8
:1013000070BDCA684968206800F0F2F84021206882
:10131000EFE7226801461046EBE7FEE770B586B0BE
:10132000002418480094019402940394816941F0C8
:1013300020018161816901F020010491816941F0FE
:1013400004018161816901F004010491816941F026
:101350000801816180690C4E00F008004FF440756F
:101360000490002229463046FFF7C7FA0120009575
:10137000CDE901040220039069463046FFF7C8F921
:1013800006B070BD00100240000C014010B586B0E0
:101390000024174800940194029403940494134980
:1013A000059401604721C0E901144FF6FF71C0E9BF
:1013B000031444618461FFF7DBFE08B172B6FEE7F7
:1013C0004FF48050009069460948FFF73BFF08B191
:1013D00072B6FEE7049404A905480594FFF794FE4D
:1013E000002801D072B6FEE706B010BD002C014007
:1013F00080000020FEE7FEE770477047FFF77ABBEA
:1014000030B58FB028216846FEF7A5FE14210AA842
:10141000FEF7A1FE01210804CDE90010002402948A
:1014200002250491CDE907504FF4E0100990684679
:10143000FFF7C6FC08B172B6FEE70F20CDE90A053A
:101440004FF48060CDE90C4002210AA80E94FFF70A
:10145000DBFB002801D072B6FEE70FB030BD70474D
:10146000F0B50268164B174C174D4FF08047984265
:1014700005D0B84203D0A04201D0A84203D122F047
:1014800070064A683243984205D0B84203D0A04261
:1014900001D0A84203D122F44074CA6822434C69A7
:1014A00022F08002224302608A68C2620A68826275
:1014B000984201D10969016301214161F0BD000039
:1014C000002C0140000400400008004010B5846872
:1014D00042EA032224F47F440A432243826010BD7F
:1014E000826822F070020A4342F00701816070476F
:1014F00010B5036A046A24F001040462846924F0CC
:10150000F00444EA021423F00A020A4384610262EE
:1015100010BD10B5036A23F0100303628369046AE7
:1015200023F4704343EA023224F0A00343EA01119A
:101530008261016210BDFEE70907090E002804DB85
:1015400000F1E02080F80014704700F00F0000F177
:10155000E02080F8141D704702E008C8121F08C17F
:10156000002AFAD170477047002001E001C1121F24
:10157000002AFBD170470000FFF7C4FAFFF740FFD5
:10158000FFF7CCFEFFF702FF3D483C494FF4804295
:1015900001603C49416000218160C0E90312416162
:1015A0008161C1610162FFF7B3F908B172B6FEE76C
:1015B00033485430FFF71EFE334CDFF8D0A04FF411
:1015C00080794FF47A7B00BFFFF73AF8002850D0BB
:1015D000FEF7E8FF2070FEF7E5FF6070FEF7E2FF20
:1015E000A070FEF7DFFFE070FEF7DCFF20712778C8
:1015F0006678A578B9194A19E1780A44824201D07F
:1016000020692CE00846FEF7EDFE0022204BFEF795
:1016100075FEFEF7F4FE80462846FEF7DEFE4146E4
:10162000FEF7A4FD1B49A060FEF7F8FD1A49FEF77E
:1016300027FE4FF08441FEF799FDE0603046FEF74B
:10164000D1FE0022124BFEF759FEFEF7D8FE0546EA
:101650003846FEF7C2FE2946FEF788FD20610F4995
:10166000884201DD012200E0002249465046FFF792
:1016700044F95846FFF73AF8A6E700000054004046
:101680002C000020801A060000000020000C014001
:1016900000002440000010410000A0400000B442BF
:1016A000044900220B685A6209684A6A8242FCD3E4
:1016B00070470000800000200000000000000000D3
:1016C00001020304060708090000000001020304E8
:1016D000F0160008000000202C000000581500083B
:1016E0001C1700082C0000209C040000681500084E
:1016F00000000000000000000000000000000000EA
:1017000000000000000000000000000001000000D8
:0C17100010000000000000000024F400A5
:04000005080000ED02
:00000001FF
